{
  "contractName": "Bank",
  "abi": [
    {
      "inputs": [
        {
          "internalType": "address",
          "name": "",
          "type": "address"
        }
      ],
      "name": "balance",
      "outputs": [
        {
          "internalType": "uint256",
          "name": "",
          "type": "uint256"
        }
      ],
      "stateMutability": "view",
      "type": "function"
    },
    {
      "inputs": [],
      "name": "deposit",
      "outputs": [],
      "stateMutability": "payable",
      "type": "function"
    },
    {
      "inputs": [
        {
          "internalType": "uint256",
          "name": "amount",
          "type": "uint256"
        }
      ],
      "name": "withdraw",
      "outputs": [],
      "stateMutability": "nonpayable",
      "type": "function"
    },
    {
      "inputs": [],
      "name": "getMyBalance",
      "outputs": [
        {
          "internalType": "uint256",
          "name": "",
          "type": "uint256"
        }
      ],
      "stateMutability": "view",
      "type": "function"
    },
    {
      "inputs": [],
      "name": "getBankBalance",
      "outputs": [
        {
          "internalType": "uint256",
          "name": "",
          "type": "uint256"
        }
      ],
      "stateMutability": "view",
      "type": "function"
    }
  ],
  "bytecode": "0x608060405234801561001057600080fd5b506104c8806100206000396000f3fe60806040526004361061004a5760003560e01c80632e1a7d4d1461004f5780634c738909146100785780637b83b50b146100a3578063d0e30db0146100ce578063e3d670d7146100d8575b600080fd5b34801561005b57600080fd5b50610076600480360381019061007191906102f7565b610115565b005b34801561008457600080fd5b5061008d6101ff565b60405161009a9190610333565b60405180910390f35b3480156100af57600080fd5b506100b8610245565b6040516100c59190610333565b60405180910390f35b6100d661024d565b005b3480156100e457600080fd5b506100ff60048036038101906100fa91906103ac565b6102a4565b60405161010c9190610333565b60405180910390f35b806000803373ffffffffffffffffffffffffffffffffffffffff1673ffffffffffffffffffffffffffffffffffffffff16815260200190815260200160002054101561016057600080fd5b806000803373ffffffffffffffffffffffffffffffffffffffff1673ffffffffffffffffffffffffffffffffffffffff16815260200190815260200160002060008282546101ae9190610408565b925050819055503373ffffffffffffffffffffffffffffffffffffffff166108fc829081150290604051600060405180830381858888f193505050501580156101fb573d6000803e3d6000fd5b5050565b60008060003373ffffffffffffffffffffffffffffffffffffffff1673ffffffffffffffffffffffffffffffffffffffff16815260200190815260200160002054905090565b600047905090565b346000803373ffffffffffffffffffffffffffffffffffffffff1673ffffffffffffffffffffffffffffffffffffffff168152602001908152602001600020600082825461029b919061043c565b92505081905550565b60006020528060005260406000206000915090505481565b600080fd5b6000819050919050565b6102d4816102c1565b81146102df57600080fd5b50565b6000813590506102f1816102cb565b92915050565b60006020828403121561030d5761030c6102bc565b5b600061031b848285016102e2565b91505092915050565b61032d816102c1565b82525050565b60006020820190506103486000830184610324565b92915050565b600073ffffffffffffffffffffffffffffffffffffffff82169050919050565b60006103798261034e565b9050919050565b6103898161036e565b811461039457600080fd5b50565b6000813590506103a681610380565b92915050565b6000602082840312156103c2576103c16102bc565b5b60006103d084828501610397565b91505092915050565b7f4e487b7100000000000000000000000000000000000000000000000000000000600052601160045260246000fd5b6000610413826102c1565b915061041e836102c1565b925082821015610431576104306103d9565b5b828203905092915050565b6000610447826102c1565b9150610452836102c1565b9250827fffffffffffffffffffffffffffffffffffffffffffffffffffffffffffffffff03821115610487576104866103d9565b5b82820190509291505056fea26469706673582212205375d484fa5789df1ebe91e2c8ae0aec65ae9334b88df5bd93775d4211f0e88964736f6c634300080a0033",
  "immutableReferences": {},
  "source": "// SPDX-License-Identifier: MIT\npragma solidity >=0.7.0 <0.9.0;\n\ncontract Bank {\n    \n    mapping(address => uint) public balance;\n    \n    function deposit() public payable {\n        balance[msg.sender] += msg.value;\n    }\n    \n    function withdraw(uint amount) public {\n        require(balance[msg.sender] >= amount);\n        balance[msg.sender] -= amount;\n        payable(msg.sender).transfer(amount);\n    }\n\n    function getMyBalance() public view returns(uint){\n        return balance[msg.sender];\n    }\n    \n    function getBankBalance() public view returns(uint){\n        return address(this).balance;\n    }\n    \n}\n",
  "sourcePath": "/home/ubuntu/Desktop/dev/SberbankHackathon/contracts/bank.sol",
  "compiler": {
    "name": "solc",
    "version": "0.8.10+commit.fc410830.Emscripten.clang"
  },
  "schemaVersion": "3.4.3",
  "updatedAt": "2021-12-03T09:09:01.390Z",
  "devdoc": {
    "kind": "dev",
    "methods": {},
    "version": 1
  },
  "userdoc": {
    "kind": "user",
    "methods": {},
    "version": 1
  }
}