{
  "contractName": "blockchainBNB",
  "abi": [
    {
      "anonymous": false,
      "inputs": [
        {
          "indexed": false,
          "internalType": "address",
          "name": "owner",
          "type": "address"
        },
        {
          "indexed": false,
          "internalType": "uint256",
          "name": "newPrice",
          "type": "uint256"
        },
        {
          "indexed": false,
          "internalType": "uint256",
          "name": "ID",
          "type": "uint256"
        }
      ],
      "name": "PriceUpdated",
      "type": "event"
    },
    {
      "anonymous": false,
      "inputs": [
        {
          "indexed": false,
          "internalType": "address",
          "name": "owner",
          "type": "address"
        },
        {
          "indexed": false,
          "internalType": "uint256",
          "name": "ID",
          "type": "uint256"
        }
      ],
      "name": "PropertyListed",
      "type": "event"
    },
    {
      "anonymous": false,
      "inputs": [
        {
          "indexed": false,
          "internalType": "address",
          "name": "owner",
          "type": "address"
        },
        {
          "indexed": false,
          "internalType": "uint256",
          "name": "ID",
          "type": "uint256"
        },
        {
          "indexed": false,
          "internalType": "address",
          "name": "renter",
          "type": "address"
        },
        {
          "indexed": false,
          "internalType": "uint256",
          "name": "checkin",
          "type": "uint256"
        },
        {
          "indexed": false,
          "internalType": "uint256",
          "name": "checkout",
          "type": "uint256"
        }
      ],
      "name": "PropertyRented",
      "type": "event"
    },
    {
      "inputs": [
        {
          "internalType": "address",
          "name": "",
          "type": "address"
        },
        {
          "internalType": "uint256",
          "name": "",
          "type": "uint256"
        }
      ],
      "name": "properties",
      "outputs": [
        {
          "internalType": "address",
          "name": "owner",
          "type": "address"
        },
        {
          "internalType": "uint256",
          "name": "id",
          "type": "uint256"
        },
        {
          "internalType": "uint256",
          "name": "perNight",
          "type": "uint256"
        },
        {
          "internalType": "bool",
          "name": "available",
          "type": "bool"
        },
        {
          "internalType": "bool",
          "name": "payInFull",
          "type": "bool"
        },
        {
          "internalType": "uint256",
          "name": "securityDeposit",
          "type": "uint256"
        }
      ],
      "stateMutability": "view",
      "type": "function"
    },
    {
      "inputs": [
        {
          "internalType": "address",
          "name": "",
          "type": "address"
        },
        {
          "internalType": "uint256",
          "name": "",
          "type": "uint256"
        }
      ],
      "name": "rentals",
      "outputs": [
        {
          "internalType": "address",
          "name": "owner",
          "type": "address"
        },
        {
          "internalType": "uint256",
          "name": "id",
          "type": "uint256"
        },
        {
          "internalType": "address",
          "name": "renter",
          "type": "address"
        },
        {
          "internalType": "uint256",
          "name": "t1",
          "type": "uint256"
        },
        {
          "internalType": "uint256",
          "name": "t2",
          "type": "uint256"
        }
      ],
      "stateMutability": "view",
      "type": "function"
    },
    {
      "inputs": [
        {
          "internalType": "address",
          "name": "",
          "type": "address"
        },
        {
          "internalType": "uint256",
          "name": "",
          "type": "uint256"
        }
      ],
      "name": "securityDeposits",
      "outputs": [
        {
          "internalType": "address",
          "name": "owner",
          "type": "address"
        },
        {
          "internalType": "uint256",
          "name": "id",
          "type": "uint256"
        },
        {
          "internalType": "address",
          "name": "renter",
          "type": "address"
        },
        {
          "internalType": "uint256",
          "name": "amount",
          "type": "uint256"
        },
        {
          "internalType": "uint256",
          "name": "timestamp",
          "type": "uint256"
        },
        {
          "internalType": "bool",
          "name": "dispute",
          "type": "bool"
        }
      ],
      "stateMutability": "view",
      "type": "function"
    },
    {
      "inputs": [
        {
          "internalType": "uint256",
          "name": "perNight",
          "type": "uint256"
        },
        {
          "internalType": "bool",
          "name": "payInFull",
          "type": "bool"
        },
        {
          "internalType": "uint256",
          "name": "securityDeposit",
          "type": "uint256"
        }
      ],
      "name": "listProperty",
      "outputs": [],
      "stateMutability": "nonpayable",
      "type": "function"
    },
    {
      "inputs": [
        {
          "internalType": "address payable",
          "name": "owner",
          "type": "address"
        },
        {
          "internalType": "uint256",
          "name": "id",
          "type": "uint256"
        },
        {
          "internalType": "uint256",
          "name": "t1",
          "type": "uint256"
        },
        {
          "internalType": "uint256",
          "name": "t2",
          "type": "uint256"
        }
      ],
      "name": "rentProperty",
      "outputs": [],
      "stateMutability": "payable",
      "type": "function"
    },
    {
      "inputs": [
        {
          "internalType": "uint256",
          "name": "newPrice",
          "type": "uint256"
        },
        {
          "internalType": "uint256",
          "name": "id",
          "type": "uint256"
        }
      ],
      "name": "updateRentalPrice",
      "outputs": [],
      "stateMutability": "nonpayable",
      "type": "function"
    },
    {
      "inputs": [
        {
          "internalType": "uint256",
          "name": "id",
          "type": "uint256"
        },
        {
          "internalType": "bool",
          "name": "available",
          "type": "bool"
        }
      ],
      "name": "UpdatePropertyAvailability",
      "outputs": [],
      "stateMutability": "nonpayable",
      "type": "function"
    },
    {
      "inputs": [
        {
          "internalType": "address",
          "name": "owner",
          "type": "address"
        },
        {
          "internalType": "uint256",
          "name": "id",
          "type": "uint256"
        },
        {
          "internalType": "bool",
          "name": "dispute",
          "type": "bool"
        }
      ],
      "name": "fileDispute",
      "outputs": [],
      "stateMutability": "nonpayable",
      "type": "function"
    },
    {
      "inputs": [
        {
          "internalType": "address payable",
          "name": "renter",
          "type": "address"
        },
        {
          "internalType": "uint256",
          "name": "id",
          "type": "uint256"
        }
      ],
      "name": "releaseDeposit",
      "outputs": [],
      "stateMutability": "nonpayable",
      "type": "function"
    },
    {
      "inputs": [],
      "name": "Time_call",
      "outputs": [
        {
          "internalType": "uint256",
          "name": "",
          "type": "uint256"
        }
      ],
      "stateMutability": "view",
      "type": "function"
    }
  ],
  "bytecode": "0x608060405234801561001057600080fd5b506120c8806100206000396000f3fe6080604052600436106100915760003560e01c806390abcd981161005957806390abcd9814610189578063a8d659bb146101b2578063f12fdc4e146101db578063f40d06021461021d578063f913a4bc1461024657610091565b80630326103014610096578063090fc58b146100c157806314bfcdd7146101025780633b88fa2114610144578063524dd05914610160575b600080fd5b3480156100a257600080fd5b506100ab61026f565b6040516100b891906117e0565b60405180910390f35b3480156100cd57600080fd5b506100e860048036038101906100e3919061188a565b610277565b6040516100f99594939291906118d9565b60405180910390f35b34801561010e57600080fd5b506101296004803603810190610124919061188a565b6102fa565b60405161013b96959493929190611947565b60405180910390f35b61015e600480360381019061015991906119e6565b61037d565b005b34801561016c57600080fd5b5061018760048036038101906101829190611a4d565b610e66565b005b34801561019557600080fd5b506101b060048036038101906101ab9190611a8d565b6111a8565b005b3480156101be57600080fd5b506101d960048036038101906101d49190611af9565b61123e565b005b3480156101e757600080fd5b5061020260048036038101906101fd919061188a565b6115a8565b60405161021496959493929190611b4c565b60405180910390f35b34801561022957600080fd5b50610244600480360381019061023f9190611bad565b61163e565b005b34801561025257600080fd5b5061026d60048036038101906102689190611c00565b611759565b005b600042905090565b6001602052816000526040600020602052806000526040600020600091509150508060000160009054906101000a900473ffffffffffffffffffffffffffffffffffffffff16908060010154908060020160009054906101000a900473ffffffffffffffffffffffffffffffffffffffff16908060030154908060040154905085565b6000602052816000526040600020602052806000526040600020600091509150508060000160009054906101000a900473ffffffffffffffffffffffffffffffffffffffff16908060010154908060020154908060030160009054906101000a900460ff16908060030160019054906101000a900460ff16908060040154905086565b6000806000806000806001600260008c73ffffffffffffffffffffffffffffffffffffffff1673ffffffffffffffffffffffffffffffffffffffff168152602001908152602001600020805490506103d59190611c6f565b891115610417576040517f08c379a000000000000000000000000000000000000000000000000000000000815260040161040e90611d00565b60405180910390fd5b87876104239190611c6f565b93506201518084111561043557600080fd5b60005b6000808c73ffffffffffffffffffffffffffffffffffffffff1673ffffffffffffffffffffffffffffffffffffffff16815260200190815260200160002060008b8152602001908152602001600020600501805490508110156105a9576000808c73ffffffffffffffffffffffffffffffffffffffff1673ffffffffffffffffffffffffffffffffffffffff16815260200190815260200160002060008b815260200190815260200160002060050181815481106104f9576104f8611d20565b5b906000526020600020015496506000808c73ffffffffffffffffffffffffffffffffffffffff1673ffffffffffffffffffffffffffffffffffffffff16815260200190815260200160002060008b8152602001908152602001600020600601818154811061056a57610569611d20565b5b9060005260206000200154955060011515898711158061058a5750888810155b15151461059657600080fd5b80806105a190611d4f565b915050610438565b506000808b73ffffffffffffffffffffffffffffffffffffffff1673ffffffffffffffffffffffffffffffffffffffff16815260200190815260200160002060008a81526020019081526020016000206004015490506000808b73ffffffffffffffffffffffffffffffffffffffff1673ffffffffffffffffffffffffffffffffffffffff16815260200190815260200160002060008a815260200190815260200160002060040154620151806000808d73ffffffffffffffffffffffffffffffffffffffff1673ffffffffffffffffffffffffffffffffffffffff16815260200190815260200160002060008c815260200190815260200160002060020154866106b49190611d98565b6106be9190611e21565b6106c89190611e52565b9250620151806000808c73ffffffffffffffffffffffffffffffffffffffff1673ffffffffffffffffffffffffffffffffffffffff16815260200190815260200160002060008b8152602001908152602001600020600201548561072c9190611d98565b6107369190611e21565b91508234101561074557600080fd5b600360003373ffffffffffffffffffffffffffffffffffffffff1673ffffffffffffffffffffffffffffffffffffffff1681526020019081526020016000208054905060058190555089600160003373ffffffffffffffffffffffffffffffffffffffff1673ffffffffffffffffffffffffffffffffffffffff1681526020019081526020016000206000600554815260200190815260200160002060000160006101000a81548173ffffffffffffffffffffffffffffffffffffffff021916908373ffffffffffffffffffffffffffffffffffffffff16021790555088600160003373ffffffffffffffffffffffffffffffffffffffff1673ffffffffffffffffffffffffffffffffffffffff168152602001908152602001600020600060055481526020019081526020016000206001018190555033600160003373ffffffffffffffffffffffffffffffffffffffff1673ffffffffffffffffffffffffffffffffffffffff1681526020019081526020016000206000600554815260200190815260200160002060020160006101000a81548173ffffffffffffffffffffffffffffffffffffffff021916908373ffffffffffffffffffffffffffffffffffffffff16021790555087600160003373ffffffffffffffffffffffffffffffffffffffff1673ffffffffffffffffffffffffffffffffffffffff168152602001908152602001600020600060055481526020019081526020016000206003018190555086600160003373ffffffffffffffffffffffffffffffffffffffff1673ffffffffffffffffffffffffffffffffffffffff16815260200190815260200160002060006005548152602001908152602001600020600401819055506000808b73ffffffffffffffffffffffffffffffffffffffff1673ffffffffffffffffffffffffffffffffffffffff16815260200190815260200160002060008a81526020019081526020016000206005018890806001815401808255809150506001900390600052602060002001600090919091909150556000808b73ffffffffffffffffffffffffffffffffffffffff1673ffffffffffffffffffffffffffffffffffffffff16815260200190815260200160002060008a815260200190815260200160002060060187908060018154018082558091505060019003906000526020600020016000909190919091505589600460003373ffffffffffffffffffffffffffffffffffffffff1673ffffffffffffffffffffffffffffffffffffffff1681526020019081526020016000206000600554815260200190815260200160002060000160006101000a81548173ffffffffffffffffffffffffffffffffffffffff021916908373ffffffffffffffffffffffffffffffffffffffff16021790555088600460003373ffffffffffffffffffffffffffffffffffffffff1673ffffffffffffffffffffffffffffffffffffffff168152602001908152602001600020600060055481526020019081526020016000206001018190555033600460003373ffffffffffffffffffffffffffffffffffffffff1673ffffffffffffffffffffffffffffffffffffffff1681526020019081526020016000206000600554815260200190815260200160002060020160006101000a81548173ffffffffffffffffffffffffffffffffffffffff021916908373ffffffffffffffffffffffffffffffffffffffff16021790555080600460003373ffffffffffffffffffffffffffffffffffffffff1673ffffffffffffffffffffffffffffffffffffffff168152602001908152602001600020600060055481526020019081526020016000206003016000828254610c9d9190611e52565b925050819055506000600460003373ffffffffffffffffffffffffffffffffffffffff1673ffffffffffffffffffffffffffffffffffffffff1681526020019081526020016000206000600554815260200190815260200160002060050160006101000a81548160ff02191690831515021790555042600460003373ffffffffffffffffffffffffffffffffffffffff1673ffffffffffffffffffffffffffffffffffffffff1681526020019081526020016000206000600554815260200190815260200160002060040181905550600360003373ffffffffffffffffffffffffffffffffffffffff1673ffffffffffffffffffffffffffffffffffffffff16815260200190815260200160002060055490806001815401808255809150506001900390600052602060002001600090919091909150558973ffffffffffffffffffffffffffffffffffffffff166108fc839081150290604051600060405180830381858888f19350505050158015610e1a573d6000803e3d6000fd5b507fda21554a181142009a8ac60c8d97feeae9dcd4433f8d31bbe4ee4080692a4f3b8a8a338b8b604051610e52959493929190611f07565b60405180910390a150505050505050505050565b6000600460008473ffffffffffffffffffffffffffffffffffffffff1673ffffffffffffffffffffffffffffffffffffffff168152602001908152602001600020600083815260200190815260200160002060000160009054906101000a900473ffffffffffffffffffffffffffffffffffffffff1673ffffffffffffffffffffffffffffffffffffffff163373ffffffffffffffffffffffffffffffffffffffff161480610fb35750600460008473ffffffffffffffffffffffffffffffffffffffff1673ffffffffffffffffffffffffffffffffffffffff168152602001908152602001600020600083815260200190815260200160002060020160009054906101000a900473ffffffffffffffffffffffffffffffffffffffff1673ffffffffffffffffffffffffffffffffffffffff163373ffffffffffffffffffffffffffffffffffffffff16145b610fbc57600080fd5b4262093a80600460008673ffffffffffffffffffffffffffffffffffffffff1673ffffffffffffffffffffffffffffffffffffffff16815260200190815260200160002060008581526020019081526020016000206004015461101f9190611e52565b1061105f576040517f08c379a000000000000000000000000000000000000000000000000000000000815260040161105690611fa6565b60405180910390fd5b60001515600460008573ffffffffffffffffffffffffffffffffffffffff1673ffffffffffffffffffffffffffffffffffffffff168152602001908152602001600020600084815260200190815260200160002060050160009054906101000a900460ff16151514611106576040517f08c379a00000000000000000000000000000000000000000000000000000000081526004016110fd90612012565b60405180910390fd5b600460008473ffffffffffffffffffffffffffffffffffffffff1673ffffffffffffffffffffffffffffffffffffffff16815260200190815260200160002060008381526020019081526020016000206003015490508273ffffffffffffffffffffffffffffffffffffffff166108fc829081150290604051600060405180830381858888f193505050501580156111a2573d6000803e3d6000fd5b50505050565b816000803373ffffffffffffffffffffffffffffffffffffffff1673ffffffffffffffffffffffffffffffffffffffff1681526020019081526020016000206000838152602001908152602001600020600201819055507fb556fac599c3c70efb9ab1fa725ecace6c81cc48d1455f886607def065f3e0c033838360405161123293929190612032565b60405180910390a15050565b600260003373ffffffffffffffffffffffffffffffffffffffff1673ffffffffffffffffffffffffffffffffffffffff16815260200190815260200160002080549050600581905550336000803373ffffffffffffffffffffffffffffffffffffffff1673ffffffffffffffffffffffffffffffffffffffff1681526020019081526020016000206000600554815260200190815260200160002060000160006101000a81548173ffffffffffffffffffffffffffffffffffffffff021916908373ffffffffffffffffffffffffffffffffffffffff1602179055506005546000803373ffffffffffffffffffffffffffffffffffffffff1673ffffffffffffffffffffffffffffffffffffffff1681526020019081526020016000206000600554815260200190815260200160002060010181905550826000803373ffffffffffffffffffffffffffffffffffffffff1673ffffffffffffffffffffffffffffffffffffffff168152602001908152602001600020600060055481526020019081526020016000206002018190555060016000803373ffffffffffffffffffffffffffffffffffffffff1673ffffffffffffffffffffffffffffffffffffffff1681526020019081526020016000206000600554815260200190815260200160002060030160006101000a81548160ff021916908315150217905550816000803373ffffffffffffffffffffffffffffffffffffffff1673ffffffffffffffffffffffffffffffffffffffff1681526020019081526020016000206000600554815260200190815260200160002060030160016101000a81548160ff021916908315150217905550806000803373ffffffffffffffffffffffffffffffffffffffff1673ffffffffffffffffffffffffffffffffffffffff1681526020019081526020016000206000600554815260200190815260200160002060040181905550600260003373ffffffffffffffffffffffffffffffffffffffff1673ffffffffffffffffffffffffffffffffffffffff16815260200190815260200160002060055490806001815401808255809150506001900390600052602060002001600090919091909150557fd45ae8d02a95e46a15b86aa93911a32c7e0bf35515df8de4945f3afb1ba110393360055460405161159b929190612069565b60405180910390a1505050565b6004602052816000526040600020602052806000526040600020600091509150508060000160009054906101000a900473ffffffffffffffffffffffffffffffffffffffff16908060010154908060020160009054906101000a900473ffffffffffffffffffffffffffffffffffffffff16908060030154908060040154908060050160009054906101000a900460ff16905086565b600460008473ffffffffffffffffffffffffffffffffffffffff1673ffffffffffffffffffffffffffffffffffffffff168152602001908152602001600020600083815260200190815260200160002060000160009054906101000a900473ffffffffffffffffffffffffffffffffffffffff1673ffffffffffffffffffffffffffffffffffffffff163373ffffffffffffffffffffffffffffffffffffffff16146116e957600080fd5b80600460003373ffffffffffffffffffffffffffffffffffffffff1673ffffffffffffffffffffffffffffffffffffffff168152602001908152602001600020600084815260200190815260200160002060050160006101000a81548160ff021916908315150217905550505050565b806000803373ffffffffffffffffffffffffffffffffffffffff1673ffffffffffffffffffffffffffffffffffffffff168152602001908152602001600020600084815260200190815260200160002060030160006101000a81548160ff0219169083151502179055505050565b6000819050919050565b6117da816117c7565b82525050565b60006020820190506117f560008301846117d1565b92915050565b600080fd5b600073ffffffffffffffffffffffffffffffffffffffff82169050919050565b600061182b82611800565b9050919050565b61183b81611820565b811461184657600080fd5b50565b60008135905061185881611832565b92915050565b611867816117c7565b811461187257600080fd5b50565b6000813590506118848161185e565b92915050565b600080604083850312156118a1576118a06117fb565b5b60006118af85828601611849565b92505060206118c085828601611875565b9150509250929050565b6118d381611820565b82525050565b600060a0820190506118ee60008301886118ca565b6118fb60208301876117d1565b61190860408301866118ca565b61191560608301856117d1565b61192260808301846117d1565b9695505050505050565b60008115159050919050565b6119418161192c565b82525050565b600060c08201905061195c60008301896118ca565b61196960208301886117d1565b61197660408301876117d1565b6119836060830186611938565b6119906080830185611938565b61199d60a08301846117d1565b979650505050505050565b60006119b382611800565b9050919050565b6119c3816119a8565b81146119ce57600080fd5b50565b6000813590506119e0816119ba565b92915050565b60008060008060808587031215611a00576119ff6117fb565b5b6000611a0e878288016119d1565b9450506020611a1f87828801611875565b9350506040611a3087828801611875565b9250506060611a4187828801611875565b91505092959194509250565b60008060408385031215611a6457611a636117fb565b5b6000611a72858286016119d1565b9250506020611a8385828601611875565b9150509250929050565b60008060408385031215611aa457611aa36117fb565b5b6000611ab285828601611875565b9250506020611ac385828601611875565b9150509250929050565b611ad68161192c565b8114611ae157600080fd5b50565b600081359050611af381611acd565b92915050565b600080600060608486031215611b1257611b116117fb565b5b6000611b2086828701611875565b9350506020611b3186828701611ae4565b9250506040611b4286828701611875565b9150509250925092565b600060c082019050611b6160008301896118ca565b611b6e60208301886117d1565b611b7b60408301876118ca565b611b8860608301866117d1565b611b9560808301856117d1565b611ba260a0830184611938565b979650505050505050565b600080600060608486031215611bc657611bc56117fb565b5b6000611bd486828701611849565b9350506020611be586828701611875565b9250506040611bf686828701611ae4565b9150509250925092565b60008060408385031215611c1757611c166117fb565b5b6000611c2585828601611875565b9250506020611c3685828601611ae4565b9150509250929050565b7f4e487b7100000000000000000000000000000000000000000000000000000000600052601160045260246000fd5b6000611c7a826117c7565b9150611c85836117c7565b925082821015611c9857611c97611c40565b5b828203905092915050565b600082825260208201905092915050565b7f4944206e6f7420666f756e640000000000000000000000000000000000000000600082015250565b6000611cea600c83611ca3565b9150611cf582611cb4565b602082019050919050565b60006020820190508181036000830152611d1981611cdd565b9050919050565b7f4e487b7100000000000000000000000000000000000000000000000000000000600052603260045260246000fd5b6000611d5a826117c7565b91507fffffffffffffffffffffffffffffffffffffffffffffffffffffffffffffffff821415611d8d57611d8c611c40565b5b600182019050919050565b6000611da3826117c7565b9150611dae836117c7565b9250817fffffffffffffffffffffffffffffffffffffffffffffffffffffffffffffffff0483118215151615611de757611de6611c40565b5b828202905092915050565b7f4e487b7100000000000000000000000000000000000000000000000000000000600052601260045260246000fd5b6000611e2c826117c7565b9150611e37836117c7565b925082611e4757611e46611df2565b5b828204905092915050565b6000611e5d826117c7565b9150611e68836117c7565b9250827fffffffffffffffffffffffffffffffffffffffffffffffffffffffffffffffff03821115611e9d57611e9c611c40565b5b828201905092915050565b6000819050919050565b6000611ecd611ec8611ec384611800565b611ea8565b611800565b9050919050565b6000611edf82611eb2565b9050919050565b6000611ef182611ed4565b9050919050565b611f0181611ee6565b82525050565b600060a082019050611f1c6000830188611ef8565b611f2960208301876117d1565b611f3660408301866118ca565b611f4360608301856117d1565b611f5060808301846117d1565b9695505050505050565b7f4465706f736974207374696c6c206f6e20686f6c640000000000000000000000600082015250565b6000611f90601583611ca3565b9150611f9b82611f5a565b602082019050919050565b60006020820190508181036000830152611fbf81611f83565b9050919050565b7f4f776e6572206861732066696c65642061206469737075746500000000000000600082015250565b6000611ffc601983611ca3565b915061200782611fc6565b602082019050919050565b6000602082019050818103600083015261202b81611fef565b9050919050565b600060608201905061204760008301866118ca565b61205460208301856117d1565b61206160408301846117d1565b949350505050565b600060408201905061207e60008301856118ca565b61208b60208301846117d1565b939250505056fea26469706673582212204a59eab065e80104d37e190bc7a465c0090a9a6bdce3291000d6f9202d9901cc64736f6c634300080a0033",
  "immutableReferences": {},
  "source": "// SPDX-License-Identifier: MIT\npragma solidity >=0.7.0 <0.9.0;\n/// @title property listing and rental contract \ncontract blockchainBNB {\n    \n    struct property {\n\n        address owner;\n        uint id;\n\n        // price per night \n        uint perNight;\n        \n        // owner can pause new rentals \n        bool available;\n\n        // pay in full or 50% now 50% on arrival\n        // functionality not yet built in\n        bool payInFull;\n\n        // security Deposit \n        uint securityDeposit;\n\n        // array of all rentals \n        uint[] t1;\n        uint[] t2;\n\n    }\n\n    struct rental {\n        \n        address owner;\n        uint id;\n        \n        address renter;\n\n        // check in check out time of renter\n        uint t1;\n        uint t2;\n    \n    }\n\n    struct securityDep {\n\n        address owner;\n        uint id;\n\n        address renter;\n\n        // renter will be able to withdraw deposit after certain amount of time \n        uint amount;\n\n        // this will be used to release after x number of days \n        uint timestamp;\n\n        // default is false\n        bool dispute;\n\n    }\n\n\n    // property struct mapping \n    mapping(address => mapping (uint => property)) public properties;\n\n\n    // rental struct mapping \n    mapping(address => mapping (uint => rental)) public rentals;\n\n\n    // allows for multiple property listings per address @dev potentially can be optimized\n    mapping(address => uint[]) private listmappingOwner;\n    mapping(address => uint[]) private listmappingRenter;\n\n\n    // security deposit mapping \n    mapping(address => mapping (uint => securityDep)) public securityDeposits;\n\n\n\n    \n    // events are not yet implemented in the Solidity Go binding \n    event PropertyListed(address owner, uint ID);\n    event PropertyRented(address owner, uint ID, address renter, uint checkin, uint checkout);\n    event PriceUpdated(address owner, uint newPrice, uint ID);\n    \n\n\n    // used by listProperty and rentProperty\n    uint private ID;\n    \n    function listProperty(uint perNight, bool payInFull, uint securityDeposit) public {\n        \n        ID = listmappingOwner[msg.sender].length;\n        \n        properties[msg.sender][ID].owner = msg.sender;\n        properties[msg.sender][ID].id = ID;\n        \n        properties[msg.sender][ID].perNight = perNight;\n        \n        properties[msg.sender][ID].available = true;\n\n        properties[msg.sender][ID].payInFull = payInFull;\n        properties[msg.sender][ID].securityDeposit = securityDeposit;\n        \n        listmappingOwner[msg.sender].push(ID);\n        \n        emit PropertyListed(msg.sender, ID);\n\n    }\n\n\n    // handle multiple rentals per renter \n    mapping (address => uint[]) private previousRentals;\n\n\n    function rentProperty(address payable owner, uint id, uint t1, uint t2) public payable {\n        \n        uint start;\n        uint end;\n        uint duration;\n        \n        \n        uint fee;\n        uint payment;\n        uint securityDeposit;\n        \n    \n        require(id <= (listmappingOwner[owner].length - 1), \"ID not found\");\n\n        duration = (t2 - t1);\n        \n        // renters should be able to rent a property for a few hours if they wish\n        require(duration <= 86400);\n\n\n        \n        // for loop to check if rental dates overlap with other renters \n        for (uint i=0; i<properties[owner][id].t1.length; i++) {\n            \n            start = properties[owner][id].t1[i];\n            end = properties[owner][id].t2[i];\n        \n            require((end <= t1 || start >= t2) == true);\n\n        }\n\n        // currently will not work if duration is < 86400 seconds \n\n        securityDeposit = properties[owner][id].securityDeposit;\n\n        fee = (duration * properties[owner][id].perNight) / 86400 + properties[owner][id].securityDeposit;\n\n        payment = (duration * properties[owner][id].perNight) / 86400;\n\n\n        require (msg.value >= fee);\n\n\n\n        // rental and security deposits struct is mapped to renter address not owner address \n\n        // id is of owner properties \n        // ID is of renter rentals \n\n        // push to rentals struct \n        ID = listmappingRenter[msg.sender].length;\n\n        rentals[msg.sender][ID].owner = owner;\n        rentals[msg.sender][ID].id = id;\n        \n        rentals[msg.sender][ID].renter = msg.sender;\n\n        rentals[msg.sender][ID].t1 = t1;\n        rentals[msg.sender][ID].t2 = t2;\n\n\n        // push check in and check out to properties struct \n        properties[owner][id].t1.push(t1);\n        properties[owner][id].t2.push(t2);\n\n\n        // security Deposit struct \n\n        securityDeposits[msg.sender][ID].owner = owner;\n        securityDeposits[msg.sender][ID].id = id;\n        securityDeposits[msg.sender][ID].renter = msg.sender;\n        securityDeposits[msg.sender][ID].amount += securityDeposit;\n        securityDeposits[msg.sender][ID].dispute = false;\n        securityDeposits[msg.sender][ID].timestamp = block.timestamp;\n\n\n        listmappingRenter[msg.sender].push(ID);\n\n        owner.transfer(payment);\n        \n        emit PropertyRented(owner, id, msg.sender, t1, t2);\n    \n        \n    }\n\n\n    // update price per night \n    function updateRentalPrice(uint newPrice, uint id) public { \n\n        properties[msg.sender][id].perNight = newPrice;\n        \n        emit PriceUpdated(msg.sender, newPrice, id);\n\n    }\n\n\n    function UpdatePropertyAvailability(uint id, bool available) public {\n\n        properties[msg.sender][id].available = available;\n\n    }\n\n\n\n    // in future members of DAO can vote to resolve dispute \n    function fileDispute(address owner, uint id, bool dispute) public {\n\n        require(msg.sender == securityDeposits[owner][id].owner);\n\n        securityDeposits[msg.sender][id].dispute = dispute;\n\n    }\n    \n    \n    \n    \n    // user is renter\n    function releaseDeposit(address payable renter, uint id) public {\n\n        uint amount;\n        \n        require(msg.sender == securityDeposits[renter][id].owner || msg.sender == securityDeposits[renter][id].renter);\n        \n        // release after a week \n        require(securityDeposits[renter][id].timestamp + 604800 < block.timestamp, \"Deposit still on hold\");\n        require(securityDeposits[renter][id].dispute == false, \"Owner has filed a dispute\");\n   \n        amount = securityDeposits[renter][id].amount;\n        \n        renter.transfer(amount);\n        \n        \n    }\n\n\n     function Time_call() public view returns (uint256){\n        return block.timestamp; \n    }\n    \n\n}\n",
  "sourcePath": "/home/ubuntu/Desktop/dev/SberbankHackathon/contracts/rental.sol",
  "compiler": {
    "name": "solc",
    "version": "0.8.10+commit.fc410830.Emscripten.clang"
  },
  "schemaVersion": "3.4.3",
  "updatedAt": "2021-12-03T09:09:01.392Z",
  "devdoc": {
    "kind": "dev",
    "methods": {},
    "title": "property listing and rental contract ",
    "version": 1
  },
  "userdoc": {
    "kind": "user",
    "methods": {},
    "version": 1
  }
}