{
  "contractName": "rentalContract",
  "abi": [
    {
      "anonymous": false,
      "inputs": [
        {
          "indexed": false,
          "internalType": "address",
          "name": "owner",
          "type": "address"
        },
        {
          "indexed": false,
          "internalType": "uint256",
          "name": "newPrice",
          "type": "uint256"
        },
        {
          "indexed": false,
          "internalType": "uint256",
          "name": "ID",
          "type": "uint256"
        }
      ],
      "name": "PriceUpdated",
      "type": "event"
    },
    {
      "anonymous": false,
      "inputs": [
        {
          "indexed": false,
          "internalType": "address",
          "name": "owner",
          "type": "address"
        },
        {
          "indexed": false,
          "internalType": "uint256",
          "name": "ID",
          "type": "uint256"
        }
      ],
      "name": "PropertyListed",
      "type": "event"
    },
    {
      "anonymous": false,
      "inputs": [
        {
          "indexed": false,
          "internalType": "address",
          "name": "owner",
          "type": "address"
        },
        {
          "indexed": false,
          "internalType": "uint256",
          "name": "ID",
          "type": "uint256"
        },
        {
          "indexed": false,
          "internalType": "address",
          "name": "renter",
          "type": "address"
        },
        {
          "indexed": false,
          "internalType": "uint256",
          "name": "checkin",
          "type": "uint256"
        },
        {
          "indexed": false,
          "internalType": "uint256",
          "name": "checkout",
          "type": "uint256"
        }
      ],
      "name": "PropertyRented",
      "type": "event"
    },
    {
      "inputs": [
        {
          "internalType": "address",
          "name": "",
          "type": "address"
        },
        {
          "internalType": "uint256",
          "name": "",
          "type": "uint256"
        }
      ],
      "name": "properties",
      "outputs": [
        {
          "internalType": "address",
          "name": "owner",
          "type": "address"
        },
        {
          "internalType": "uint256",
          "name": "id",
          "type": "uint256"
        },
        {
          "internalType": "uint256",
          "name": "perNight",
          "type": "uint256"
        },
        {
          "internalType": "bool",
          "name": "available",
          "type": "bool"
        },
        {
          "internalType": "uint256",
          "name": "securityDeposit",
          "type": "uint256"
        }
      ],
      "stateMutability": "view",
      "type": "function"
    },
    {
      "inputs": [
        {
          "internalType": "address",
          "name": "",
          "type": "address"
        },
        {
          "internalType": "uint256",
          "name": "",
          "type": "uint256"
        }
      ],
      "name": "rentals",
      "outputs": [
        {
          "internalType": "address",
          "name": "owner",
          "type": "address"
        },
        {
          "internalType": "uint256",
          "name": "id",
          "type": "uint256"
        },
        {
          "internalType": "address",
          "name": "renter",
          "type": "address"
        },
        {
          "internalType": "uint256",
          "name": "t1",
          "type": "uint256"
        },
        {
          "internalType": "uint256",
          "name": "t2",
          "type": "uint256"
        }
      ],
      "stateMutability": "view",
      "type": "function"
    },
    {
      "inputs": [
        {
          "internalType": "address",
          "name": "",
          "type": "address"
        },
        {
          "internalType": "uint256",
          "name": "",
          "type": "uint256"
        }
      ],
      "name": "securityDeposits",
      "outputs": [
        {
          "internalType": "address",
          "name": "owner",
          "type": "address"
        },
        {
          "internalType": "uint256",
          "name": "id",
          "type": "uint256"
        },
        {
          "internalType": "address",
          "name": "renter",
          "type": "address"
        },
        {
          "internalType": "uint256",
          "name": "amount",
          "type": "uint256"
        },
        {
          "internalType": "uint256",
          "name": "timestamp",
          "type": "uint256"
        },
        {
          "internalType": "bool",
          "name": "dispute",
          "type": "bool"
        }
      ],
      "stateMutability": "view",
      "type": "function"
    },
    {
      "inputs": [
        {
          "internalType": "uint256",
          "name": "perNight",
          "type": "uint256"
        },
        {
          "internalType": "uint256",
          "name": "securityDeposit",
          "type": "uint256"
        }
      ],
      "name": "listProperty",
      "outputs": [],
      "stateMutability": "nonpayable",
      "type": "function"
    },
    {
      "inputs": [
        {
          "internalType": "address payable",
          "name": "owner",
          "type": "address"
        },
        {
          "internalType": "uint256",
          "name": "id",
          "type": "uint256"
        },
        {
          "internalType": "uint256",
          "name": "t1",
          "type": "uint256"
        },
        {
          "internalType": "uint256",
          "name": "t2",
          "type": "uint256"
        }
      ],
      "name": "rentProperty",
      "outputs": [],
      "stateMutability": "payable",
      "type": "function"
    },
    {
      "inputs": [
        {
          "internalType": "uint256",
          "name": "newPrice",
          "type": "uint256"
        },
        {
          "internalType": "uint256",
          "name": "id",
          "type": "uint256"
        }
      ],
      "name": "updateRentalPrice",
      "outputs": [],
      "stateMutability": "nonpayable",
      "type": "function"
    },
    {
      "inputs": [
        {
          "internalType": "uint256",
          "name": "id",
          "type": "uint256"
        },
        {
          "internalType": "bool",
          "name": "available",
          "type": "bool"
        }
      ],
      "name": "UpdatePropertyAvailability",
      "outputs": [],
      "stateMutability": "nonpayable",
      "type": "function"
    },
    {
      "inputs": [
        {
          "internalType": "address",
          "name": "owner",
          "type": "address"
        },
        {
          "internalType": "uint256",
          "name": "id",
          "type": "uint256"
        },
        {
          "internalType": "bool",
          "name": "dispute",
          "type": "bool"
        }
      ],
      "name": "fileDispute",
      "outputs": [],
      "stateMutability": "nonpayable",
      "type": "function"
    },
    {
      "inputs": [
        {
          "internalType": "address payable",
          "name": "renter",
          "type": "address"
        },
        {
          "internalType": "uint256",
          "name": "id",
          "type": "uint256"
        }
      ],
      "name": "releaseDeposit",
      "outputs": [],
      "stateMutability": "nonpayable",
      "type": "function"
    }
  ],
  "bytecode": "0x608060405234801561001057600080fd5b50611f8d806100206000396000f3fe6080604052600436106100865760003560e01c8063524dd05911610059578063524dd0591461015257806390abcd981461017b578063f12fdc4e146101a4578063f40d0602146101e6578063f913a4bc1461020f57610086565b8063090fc58b1461008b57806314bfcdd7146100cc5780633b88fa211461010d5780634eda529b14610129575b600080fd5b34801561009757600080fd5b506100b260048036038101906100ad91906117a1565b610238565b6040516100c39594939291906117ff565b60405180910390f35b3480156100d857600080fd5b506100f360048036038101906100ee91906117a1565b6102bb565b60405161010495949392919061186d565b60405180910390f35b610127600480360381019061012291906118fe565b61032b565b005b34801561013557600080fd5b50610150600480360381019061014b9190611965565b610e14565b005b34801561015e57600080fd5b50610179600480360381019061017491906119a5565b611111565b005b34801561018757600080fd5b506101a2600480360381019061019d9190611965565b611453565b005b3480156101b057600080fd5b506101cb60048036038101906101c691906117a1565b6114e9565b6040516101dd969594939291906119e5565b60405180910390f35b3480156101f257600080fd5b5061020d60048036038101906102089190611a72565b61157f565b005b34801561021b57600080fd5b5061023660048036038101906102319190611ac5565b61169a565b005b6001602052816000526040600020602052806000526040600020600091509150508060000160009054906101000a900473ffffffffffffffffffffffffffffffffffffffff16908060010154908060020160009054906101000a900473ffffffffffffffffffffffffffffffffffffffff16908060030154908060040154905085565b6000602052816000526040600020602052806000526040600020600091509150508060000160009054906101000a900473ffffffffffffffffffffffffffffffffffffffff16908060010154908060020154908060030160009054906101000a900460ff16908060040154905085565b6000806000806000806001600260008c73ffffffffffffffffffffffffffffffffffffffff1673ffffffffffffffffffffffffffffffffffffffff168152602001908152602001600020805490506103839190611b34565b8911156103c5576040517f08c379a00000000000000000000000000000000000000000000000000000000081526004016103bc90611bc5565b60405180910390fd5b87876103d19190611b34565b9350620151808411156103e357600080fd5b60005b6000808c73ffffffffffffffffffffffffffffffffffffffff1673ffffffffffffffffffffffffffffffffffffffff16815260200190815260200160002060008b815260200190815260200160002060050180549050811015610557576000808c73ffffffffffffffffffffffffffffffffffffffff1673ffffffffffffffffffffffffffffffffffffffff16815260200190815260200160002060008b815260200190815260200160002060050181815481106104a7576104a6611be5565b5b906000526020600020015496506000808c73ffffffffffffffffffffffffffffffffffffffff1673ffffffffffffffffffffffffffffffffffffffff16815260200190815260200160002060008b8152602001908152602001600020600601818154811061051857610517611be5565b5b906000526020600020015495506001151589871115806105385750888810155b15151461054457600080fd5b808061054f90611c14565b9150506103e6565b506000808b73ffffffffffffffffffffffffffffffffffffffff1673ffffffffffffffffffffffffffffffffffffffff16815260200190815260200160002060008a81526020019081526020016000206004015490506000808b73ffffffffffffffffffffffffffffffffffffffff1673ffffffffffffffffffffffffffffffffffffffff16815260200190815260200160002060008a815260200190815260200160002060040154620151806000808d73ffffffffffffffffffffffffffffffffffffffff1673ffffffffffffffffffffffffffffffffffffffff16815260200190815260200160002060008c815260200190815260200160002060020154866106629190611c5d565b61066c9190611ce6565b6106769190611d17565b9250620151806000808c73ffffffffffffffffffffffffffffffffffffffff1673ffffffffffffffffffffffffffffffffffffffff16815260200190815260200160002060008b815260200190815260200160002060020154856106da9190611c5d565b6106e49190611ce6565b9150823410156106f357600080fd5b600360003373ffffffffffffffffffffffffffffffffffffffff1673ffffffffffffffffffffffffffffffffffffffff1681526020019081526020016000208054905060058190555089600160003373ffffffffffffffffffffffffffffffffffffffff1673ffffffffffffffffffffffffffffffffffffffff1681526020019081526020016000206000600554815260200190815260200160002060000160006101000a81548173ffffffffffffffffffffffffffffffffffffffff021916908373ffffffffffffffffffffffffffffffffffffffff16021790555088600160003373ffffffffffffffffffffffffffffffffffffffff1673ffffffffffffffffffffffffffffffffffffffff168152602001908152602001600020600060055481526020019081526020016000206001018190555033600160003373ffffffffffffffffffffffffffffffffffffffff1673ffffffffffffffffffffffffffffffffffffffff1681526020019081526020016000206000600554815260200190815260200160002060020160006101000a81548173ffffffffffffffffffffffffffffffffffffffff021916908373ffffffffffffffffffffffffffffffffffffffff16021790555087600160003373ffffffffffffffffffffffffffffffffffffffff1673ffffffffffffffffffffffffffffffffffffffff168152602001908152602001600020600060055481526020019081526020016000206003018190555086600160003373ffffffffffffffffffffffffffffffffffffffff1673ffffffffffffffffffffffffffffffffffffffff16815260200190815260200160002060006005548152602001908152602001600020600401819055506000808b73ffffffffffffffffffffffffffffffffffffffff1673ffffffffffffffffffffffffffffffffffffffff16815260200190815260200160002060008a81526020019081526020016000206005018890806001815401808255809150506001900390600052602060002001600090919091909150556000808b73ffffffffffffffffffffffffffffffffffffffff1673ffffffffffffffffffffffffffffffffffffffff16815260200190815260200160002060008a815260200190815260200160002060060187908060018154018082558091505060019003906000526020600020016000909190919091505589600460003373ffffffffffffffffffffffffffffffffffffffff1673ffffffffffffffffffffffffffffffffffffffff1681526020019081526020016000206000600554815260200190815260200160002060000160006101000a81548173ffffffffffffffffffffffffffffffffffffffff021916908373ffffffffffffffffffffffffffffffffffffffff16021790555088600460003373ffffffffffffffffffffffffffffffffffffffff1673ffffffffffffffffffffffffffffffffffffffff168152602001908152602001600020600060055481526020019081526020016000206001018190555033600460003373ffffffffffffffffffffffffffffffffffffffff1673ffffffffffffffffffffffffffffffffffffffff1681526020019081526020016000206000600554815260200190815260200160002060020160006101000a81548173ffffffffffffffffffffffffffffffffffffffff021916908373ffffffffffffffffffffffffffffffffffffffff16021790555080600460003373ffffffffffffffffffffffffffffffffffffffff1673ffffffffffffffffffffffffffffffffffffffff168152602001908152602001600020600060055481526020019081526020016000206003016000828254610c4b9190611d17565b925050819055506000600460003373ffffffffffffffffffffffffffffffffffffffff1673ffffffffffffffffffffffffffffffffffffffff1681526020019081526020016000206000600554815260200190815260200160002060050160006101000a81548160ff02191690831515021790555042600460003373ffffffffffffffffffffffffffffffffffffffff1673ffffffffffffffffffffffffffffffffffffffff1681526020019081526020016000206000600554815260200190815260200160002060040181905550600360003373ffffffffffffffffffffffffffffffffffffffff1673ffffffffffffffffffffffffffffffffffffffff16815260200190815260200160002060055490806001815401808255809150506001900390600052602060002001600090919091909150558973ffffffffffffffffffffffffffffffffffffffff166108fc839081150290604051600060405180830381858888f19350505050158015610dc8573d6000803e3d6000fd5b507fda21554a181142009a8ac60c8d97feeae9dcd4433f8d31bbe4ee4080692a4f3b8a8a338b8b604051610e00959493929190611dcc565b60405180910390a150505050505050505050565b600260003373ffffffffffffffffffffffffffffffffffffffff1673ffffffffffffffffffffffffffffffffffffffff16815260200190815260200160002080549050600581905550336000803373ffffffffffffffffffffffffffffffffffffffff1673ffffffffffffffffffffffffffffffffffffffff1681526020019081526020016000206000600554815260200190815260200160002060000160006101000a81548173ffffffffffffffffffffffffffffffffffffffff021916908373ffffffffffffffffffffffffffffffffffffffff1602179055506005546000803373ffffffffffffffffffffffffffffffffffffffff1673ffffffffffffffffffffffffffffffffffffffff1681526020019081526020016000206000600554815260200190815260200160002060010181905550816000803373ffffffffffffffffffffffffffffffffffffffff1673ffffffffffffffffffffffffffffffffffffffff168152602001908152602001600020600060055481526020019081526020016000206002018190555060016000803373ffffffffffffffffffffffffffffffffffffffff1673ffffffffffffffffffffffffffffffffffffffff1681526020019081526020016000206000600554815260200190815260200160002060030160006101000a81548160ff021916908315150217905550806000803373ffffffffffffffffffffffffffffffffffffffff1673ffffffffffffffffffffffffffffffffffffffff1681526020019081526020016000206000600554815260200190815260200160002060040181905550600260003373ffffffffffffffffffffffffffffffffffffffff1673ffffffffffffffffffffffffffffffffffffffff16815260200190815260200160002060055490806001815401808255809150506001900390600052602060002001600090919091909150557fd45ae8d02a95e46a15b86aa93911a32c7e0bf35515df8de4945f3afb1ba1103933600554604051611105929190611e1f565b60405180910390a15050565b6000600460008473ffffffffffffffffffffffffffffffffffffffff1673ffffffffffffffffffffffffffffffffffffffff168152602001908152602001600020600083815260200190815260200160002060000160009054906101000a900473ffffffffffffffffffffffffffffffffffffffff1673ffffffffffffffffffffffffffffffffffffffff163373ffffffffffffffffffffffffffffffffffffffff16148061125e5750600460008473ffffffffffffffffffffffffffffffffffffffff1673ffffffffffffffffffffffffffffffffffffffff168152602001908152602001600020600083815260200190815260200160002060020160009054906101000a900473ffffffffffffffffffffffffffffffffffffffff1673ffffffffffffffffffffffffffffffffffffffff163373ffffffffffffffffffffffffffffffffffffffff16145b61126757600080fd5b4262093a80600460008673ffffffffffffffffffffffffffffffffffffffff1673ffffffffffffffffffffffffffffffffffffffff1681526020019081526020016000206000858152602001908152602001600020600401546112ca9190611d17565b1061130a576040517f08c379a000000000000000000000000000000000000000000000000000000000815260040161130190611e94565b60405180910390fd5b60001515600460008573ffffffffffffffffffffffffffffffffffffffff1673ffffffffffffffffffffffffffffffffffffffff168152602001908152602001600020600084815260200190815260200160002060050160009054906101000a900460ff161515146113b1576040517f08c379a00000000000000000000000000000000000000000000000000000000081526004016113a890611f00565b60405180910390fd5b600460008473ffffffffffffffffffffffffffffffffffffffff1673ffffffffffffffffffffffffffffffffffffffff16815260200190815260200160002060008381526020019081526020016000206003015490508273ffffffffffffffffffffffffffffffffffffffff166108fc829081150290604051600060405180830381858888f1935050505015801561144d573d6000803e3d6000fd5b50505050565b816000803373ffffffffffffffffffffffffffffffffffffffff1673ffffffffffffffffffffffffffffffffffffffff1681526020019081526020016000206000838152602001908152602001600020600201819055507fb556fac599c3c70efb9ab1fa725ecace6c81cc48d1455f886607def065f3e0c03383836040516114dd93929190611f20565b60405180910390a15050565b6004602052816000526040600020602052806000526040600020600091509150508060000160009054906101000a900473ffffffffffffffffffffffffffffffffffffffff16908060010154908060020160009054906101000a900473ffffffffffffffffffffffffffffffffffffffff16908060030154908060040154908060050160009054906101000a900460ff16905086565b600460008473ffffffffffffffffffffffffffffffffffffffff1673ffffffffffffffffffffffffffffffffffffffff168152602001908152602001600020600083815260200190815260200160002060000160009054906101000a900473ffffffffffffffffffffffffffffffffffffffff1673ffffffffffffffffffffffffffffffffffffffff163373ffffffffffffffffffffffffffffffffffffffff161461162a57600080fd5b80600460003373ffffffffffffffffffffffffffffffffffffffff1673ffffffffffffffffffffffffffffffffffffffff168152602001908152602001600020600084815260200190815260200160002060050160006101000a81548160ff021916908315150217905550505050565b806000803373ffffffffffffffffffffffffffffffffffffffff1673ffffffffffffffffffffffffffffffffffffffff168152602001908152602001600020600084815260200190815260200160002060030160006101000a81548160ff0219169083151502179055505050565b600080fd5b600073ffffffffffffffffffffffffffffffffffffffff82169050919050565b60006117388261170d565b9050919050565b6117488161172d565b811461175357600080fd5b50565b6000813590506117658161173f565b92915050565b6000819050919050565b61177e8161176b565b811461178957600080fd5b50565b60008135905061179b81611775565b92915050565b600080604083850312156117b8576117b7611708565b5b60006117c685828601611756565b92505060206117d78582860161178c565b9150509250929050565b6117ea8161172d565b82525050565b6117f98161176b565b82525050565b600060a08201905061181460008301886117e1565b61182160208301876117f0565b61182e60408301866117e1565b61183b60608301856117f0565b61184860808301846117f0565b9695505050505050565b60008115159050919050565b61186781611852565b82525050565b600060a08201905061188260008301886117e1565b61188f60208301876117f0565b61189c60408301866117f0565b6118a9606083018561185e565b6118b660808301846117f0565b9695505050505050565b60006118cb8261170d565b9050919050565b6118db816118c0565b81146118e657600080fd5b50565b6000813590506118f8816118d2565b92915050565b6000806000806080858703121561191857611917611708565b5b6000611926878288016118e9565b94505060206119378782880161178c565b93505060406119488782880161178c565b92505060606119598782880161178c565b91505092959194509250565b6000806040838503121561197c5761197b611708565b5b600061198a8582860161178c565b925050602061199b8582860161178c565b9150509250929050565b600080604083850312156119bc576119bb611708565b5b60006119ca858286016118e9565b92505060206119db8582860161178c565b9150509250929050565b600060c0820190506119fa60008301896117e1565b611a0760208301886117f0565b611a1460408301876117e1565b611a2160608301866117f0565b611a2e60808301856117f0565b611a3b60a083018461185e565b979650505050505050565b611a4f81611852565b8114611a5a57600080fd5b50565b600081359050611a6c81611a46565b92915050565b600080600060608486031215611a8b57611a8a611708565b5b6000611a9986828701611756565b9350506020611aaa8682870161178c565b9250506040611abb86828701611a5d565b9150509250925092565b60008060408385031215611adc57611adb611708565b5b6000611aea8582860161178c565b9250506020611afb85828601611a5d565b9150509250929050565b7f4e487b7100000000000000000000000000000000000000000000000000000000600052601160045260246000fd5b6000611b3f8261176b565b9150611b4a8361176b565b925082821015611b5d57611b5c611b05565b5b828203905092915050565b600082825260208201905092915050565b7f4944206e6f7420666f756e640000000000000000000000000000000000000000600082015250565b6000611baf600c83611b68565b9150611bba82611b79565b602082019050919050565b60006020820190508181036000830152611bde81611ba2565b9050919050565b7f4e487b7100000000000000000000000000000000000000000000000000000000600052603260045260246000fd5b6000611c1f8261176b565b91507fffffffffffffffffffffffffffffffffffffffffffffffffffffffffffffffff821415611c5257611c51611b05565b5b600182019050919050565b6000611c688261176b565b9150611c738361176b565b9250817fffffffffffffffffffffffffffffffffffffffffffffffffffffffffffffffff0483118215151615611cac57611cab611b05565b5b828202905092915050565b7f4e487b7100000000000000000000000000000000000000000000000000000000600052601260045260246000fd5b6000611cf18261176b565b9150611cfc8361176b565b925082611d0c57611d0b611cb7565b5b828204905092915050565b6000611d228261176b565b9150611d2d8361176b565b9250827fffffffffffffffffffffffffffffffffffffffffffffffffffffffffffffffff03821115611d6257611d61611b05565b5b828201905092915050565b6000819050919050565b6000611d92611d8d611d888461170d565b611d6d565b61170d565b9050919050565b6000611da482611d77565b9050919050565b6000611db682611d99565b9050919050565b611dc681611dab565b82525050565b600060a082019050611de16000830188611dbd565b611dee60208301876117f0565b611dfb60408301866117e1565b611e0860608301856117f0565b611e1560808301846117f0565b9695505050505050565b6000604082019050611e3460008301856117e1565b611e4160208301846117f0565b9392505050565b7f4465706f736974207374696c6c206f6e20686f6c640000000000000000000000600082015250565b6000611e7e601583611b68565b9150611e8982611e48565b602082019050919050565b60006020820190508181036000830152611ead81611e71565b9050919050565b7f4f776e6572206861732066696c65642061206469737075746500000000000000600082015250565b6000611eea601983611b68565b9150611ef582611eb4565b602082019050919050565b60006020820190508181036000830152611f1981611edd565b9050919050565b6000606082019050611f3560008301866117e1565b611f4260208301856117f0565b611f4f60408301846117f0565b94935050505056fea2646970667358221220ecd5671f65b5512011d5bf5e65ab9d575a64e6da8e3cc09e162fe2b065c4e47b64736f6c634300080a0033",
  "immutableReferences": {},
  "source": "// SPDX-License-Identifier: MIT\npragma solidity >=0.7.0 <0.9.0;\n/// @title property listing and rental contract \ncontract rentalContract {\n    \n    struct property {\n\n        address owner;\n        uint id;\n        uint perNight;\n        bool available;\n        uint securityDeposit;\n\n        // array of all rentals \n        uint[] t1;\n        uint[] t2;\n\n    }\n\n    struct rental {\n        \n        address owner;\n        uint id;\n        address renter;\n\n        // check in check out time of renter\n        uint t1;\n        uint t2;\n    \n    }\n\n    struct securityDep {\n\n        address owner;\n        uint id;\n        address renter;\n\n        // renter will be able to withdraw deposit after certain amount of time \n        uint amount;\n\n        // this will be used to release after x number of days \n        uint timestamp;\n\n        // default is false\n        bool dispute;\n\n    }\n\n\n    // property struct mapping \n    mapping(address => mapping (uint => property)) public properties;\n\n    // rental struct mapping \n    mapping(address => mapping (uint => rental)) public rentals;\n\n    // allows for multiple property listings per address @dev potentially can be optimized\n    mapping(address => uint[]) private listmappingOwner;\n    mapping(address => uint[]) private listmappingRenter;\n\n    // security deposit mapping \n    mapping(address => mapping (uint => securityDep)) public securityDeposits;\n\n    // events are not yet implemented in the Solidity Go binding \n    event PropertyListed(address owner, uint ID);\n    event PropertyRented(address owner, uint ID, address renter, uint checkin, uint checkout);\n    event PriceUpdated(address owner, uint newPrice, uint ID);\n\n    // used by listProperty and rentProperty\n    uint private ID;\n    \n    function listProperty(uint perNight, uint securityDeposit) public {\n        \n        ID = listmappingOwner[msg.sender].length;\n        \n        properties[msg.sender][ID].owner = msg.sender;\n        properties[msg.sender][ID].id = ID;\n        properties[msg.sender][ID].perNight = perNight;\n        properties[msg.sender][ID].available = true;\n\n        properties[msg.sender][ID].securityDeposit = securityDeposit;\n        listmappingOwner[msg.sender].push(ID);\n        emit PropertyListed(msg.sender, ID);\n\n    }\n\n    // handle multiple rentals per renter \n    mapping (address => uint[]) private previousRentals;\n\n    function rentProperty(address payable owner, uint id, uint t1, uint t2) public payable {\n        \n        uint start;\n        uint end;\n        uint duration;\n    \n        uint fee;\n        uint payment;\n        uint securityDeposit;\n        \n    \n        require(id <= (listmappingOwner[owner].length - 1), \"ID not found\");\n        duration = (t2 - t1);\n        \n        // minimum rental duration is 1 day\n        require(duration <= 86400);\n\n        // for loop to check if rental dates overlap with other renters \n        for (uint i=0; i<properties[owner][id].t1.length; i++) {\n            \n            start = properties[owner][id].t1[i];\n            end = properties[owner][id].t2[i];\n        \n            require((end <= t1 || start >= t2) == true);\n\n        }\n\n        securityDeposit = properties[owner][id].securityDeposit;\n\n        fee = (duration * properties[owner][id].perNight) / 86400 + properties[owner][id].securityDeposit;\n\n        payment = (duration * properties[owner][id].perNight) / 86400;\n\n        require (msg.value >= fee);\n\n\n\n        // rental and security deposits struct is mapped to renter address not owner address \n\n        // id is of owner properties \n        // ID is of renter rentals \n\n        // push to rentals struct \n        ID = listmappingRenter[msg.sender].length;\n\n        rentals[msg.sender][ID].owner = owner;\n        rentals[msg.sender][ID].id = id;\n        rentals[msg.sender][ID].renter = msg.sender;\n        rentals[msg.sender][ID].t1 = t1;\n        rentals[msg.sender][ID].t2 = t2;\n\n        // push check in and check out to properties struct \n        properties[owner][id].t1.push(t1);\n        properties[owner][id].t2.push(t2);\n\n        // security Deposit struct \n        securityDeposits[msg.sender][ID].owner = owner;\n        securityDeposits[msg.sender][ID].id = id;\n        securityDeposits[msg.sender][ID].renter = msg.sender;\n        securityDeposits[msg.sender][ID].amount += securityDeposit;\n        securityDeposits[msg.sender][ID].dispute = false;\n        securityDeposits[msg.sender][ID].timestamp = block.timestamp;\n\n        listmappingRenter[msg.sender].push(ID);\n\n        owner.transfer(payment);\n        \n        emit PropertyRented(owner, id, msg.sender, t1, t2);\n    \n    }\n\n\n    // update price per night \n    function updateRentalPrice(uint newPrice, uint id) public { \n\n        properties[msg.sender][id].perNight = newPrice;\n        \n        emit PriceUpdated(msg.sender, newPrice, id);\n\n    }\n\n\n    function UpdatePropertyAvailability(uint id, bool available) public {\n\n        properties[msg.sender][id].available = available;\n\n    }\n\n    // in future members of DAO can vote to resolve dispute \n    function fileDispute(address owner, uint id, bool dispute) public {\n\n        require(msg.sender == securityDeposits[owner][id].owner);\n\n        securityDeposits[msg.sender][id].dispute = dispute;\n\n    }\n    \n    // user is renter\n    function releaseDeposit(address payable renter, uint id) public {\n\n        uint amount;\n        \n        require(msg.sender == securityDeposits[renter][id].owner || msg.sender == securityDeposits[renter][id].renter);\n        \n        // release after a week if there is no dispute\n        require(securityDeposits[renter][id].timestamp + 604800 < block.timestamp, \"Deposit still on hold\");\n        require(securityDeposits[renter][id].dispute == false, \"Owner has filed a dispute\");\n   \n        amount = securityDeposits[renter][id].amount;\n        renter.transfer(amount);\n        \n    }\n\n}\n",
  "sourcePath": "/home/ubuntu/Desktop/dev/SberbankHackathon/contracts/rental.sol",
  "compiler": {
    "name": "solc",
    "version": "0.8.10+commit.fc410830.Emscripten.clang"
  },
  "schemaVersion": "3.4.3",
  "updatedAt": "2021-12-03T13:16:07.706Z",
  "devdoc": {
    "kind": "dev",
    "methods": {},
    "title": "property listing and rental contract ",
    "version": 1
  },
  "userdoc": {
    "kind": "user",
    "methods": {},
    "version": 1
  }
}